{
  "contractName": "MyContract",
  "abi": [
    {
      "inputs": [
        {
          "internalType": "string",
          "name": "",
          "type": "string"
        }
      ],
      "name": "hashDetails",
      "outputs": [
        {
          "internalType": "string",
          "name": "uploader_name",
          "type": "string"
        },
        {
          "internalType": "uint256",
          "name": "timestamp",
          "type": "uint256"
        },
        {
          "internalType": "string",
          "name": "imgHash",
          "type": "string"
        }
      ],
      "stateMutability": "view",
      "type": "function",
      "constant": true
    },
    {
      "inputs": [
        {
          "internalType": "string",
          "name": "_uploader_name",
          "type": "string"
        },
        {
          "internalType": "uint256",
          "name": "_timestamp",
          "type": "uint256"
        },
        {
          "internalType": "string",
          "name": "_imgHash",
          "type": "string"
        }
      ],
      "name": "sethashDetails",
      "outputs": [],
      "stateMutability": "nonpayable",
      "type": "function"
    },
    {
      "inputs": [
        {
          "internalType": "string",
          "name": "_imgHash",
          "type": "string"
        }
      ],
      "name": "verifyDetails",
      "outputs": [
        {
          "internalType": "string",
          "name": "uploader_name",
          "type": "string"
        },
        {
          "internalType": "uint256",
          "name": "timestamp",
          "type": "uint256"
        },
        {
          "internalType": "string",
          "name": "imgHash",
          "type": "string"
        }
      ],
      "stateMutability": "view",
      "type": "function",
      "constant": true
    }
  ],
  "bytecode": "0x608060405234801561001057600080fd5b50610b3b806100206000396000f3fe608060405234801561001057600080fd5b50600436106100415760003560e01c8063c863ebe614610046578063cffd362e146101a2578063da11eb1914610349575b600080fd5b6101a06004803603606081101561005c57600080fd5b810190808035906020019064010000000081111561007957600080fd5b82018360208201111561008b57600080fd5b803590602001918460018302840111640100000000831117156100ad57600080fd5b91908080601f016020809104026020016040519081016040528093929190818152602001838380828437600081840152601f19601f820116905080830192505050505050509192919290803590602001909291908035906020019064010000000081111561011a57600080fd5b82018360208201111561012c57600080fd5b8035906020019184600183028401116401000000008311171561014e57600080fd5b91908080601f016020809104026020016040519081016040528093929190818152602001838380828437600081840152601f19601f8201169050808301925050505050505091929192905050506104f0565b005b61025b600480360360208110156101b857600080fd5b81019080803590602001906401000000008111156101d557600080fd5b8201836020820111156101e757600080fd5b8035906020019184600183028401116401000000008311171561020957600080fd5b91908080601f016020809104026020016040519081016040528093929190818152602001838380828437600081840152601f19601f820116905080830192505050505050509192919290505050610668565b604051808060200184815260200180602001838103835286818151815260200191508051906020019080838360005b838110156102a557808201518184015260208101905061028a565b50505050905090810190601f1680156102d25780820380516001836020036101000a031916815260200191505b50838103825284818151815260200191508051906020019080838360005b8381101561030b5780820151818401526020810190506102f0565b50505050905090810190601f1680156103385780820380516001836020036101000a031916815260200191505b509550505050505060405180910390f35b6104026004803603602081101561035f57600080fd5b810190808035906020019064010000000081111561037c57600080fd5b82018360208201111561038e57600080fd5b803590602001918460018302840111640100000000831117156103b057600080fd5b91908080601f016020809104026020016040519081016040528093929190818152602001838380828437600081840152601f19601f8201169050808301925050505050505091929192905050506107d8565b604051808060200184815260200180602001838103835286818151815260200191508051906020019080838360005b8381101561044c578082015181840152602081019050610431565b50505050905090810190601f1680156104795780820380516001836020036101000a031916815260200191505b50838103825284818151815260200191508051906020019080838360005b838110156104b2578082015181840152602081019050610497565b50505050905090810190601f1680156104df5780820380516001836020036101000a031916815260200191505b509550505050505060405180910390f35b806000826040518082805190602001908083835b602083106105275780518252602082019150602081019050602083039250610504565b6001836020036101000a03801982511681845116808217855250505050505090500191505090815260200160405180910390206002019080519060200190610570929190610a68565b50816000826040518082805190602001908083835b602083106105a85780518252602082019150602081019050602083039250610585565b6001836020036101000a038019825116818451168082178552505050505050905001915050908152602001604051809103902060010181905550826000826040518082805190602001908083835b6020831061061957805182526020820191506020810190506020830392506105f6565b6001836020036101000a03801982511681845116808217855250505050505090500191505090815260200160405180910390206000019080519060200190610662929190610a68565b50505050565b600081805160208101820180518482526020830160208501208183528095505050505050600091509050806000018054600181600116156101000203166002900480601f01602080910402602001604051908101604052809291908181526020018280546001816001161561010002031660029004801561072a5780601f106106ff5761010080835404028352916020019161072a565b820191906000526020600020905b81548152906001019060200180831161070d57829003601f168201915b505050505090806001015490806002018054600181600116156101000203166002900480601f0160208091040260200160405190810160405280929190818152602001828054600181600116156101000203166002900480156107ce5780601f106107a3576101008083540402835291602001916107ce565b820191906000526020600020905b8154815290600101906020018083116107b157829003601f168201915b5050505050905083565b6060600060606000846040518082805190602001908083835b6020831061081457805182526020820191506020810190506020830392506107f1565b6001836020036101000a03801982511681845116808217855250505050505090500191505090815260200160405180910390206000016000856040518082805190602001908083835b60208310610880578051825260208201915060208101905060208303925061085d565b6001836020036101000a0380198251168184511680821785525050505050509050019150509081526020016040518091039020600101546000866040518082805190602001908083835b602083106108ed57805182526020820191506020810190506020830392506108ca565b6001836020036101000a0380198251168184511680821785525050505050509050019150509081526020016040518091039020600201828054600181600116156101000203166002900480601f0160208091040260200160405190810160405280929190818152602001828054600181600116156101000203166002900480156109b85780601f1061098d576101008083540402835291602001916109b8565b820191906000526020600020905b81548152906001019060200180831161099b57829003601f168201915b50505050509250808054600181600116156101000203166002900480601f016020809104026020016040519081016040528092919081815260200182805460018160011615610100020316600290048015610a545780601f10610a2957610100808354040283529160200191610a54565b820191906000526020600020905b815481529060010190602001808311610a3757829003601f168201915b505050505090509250925092509193909250565b828054600181600116156101000203166002900490600052602060002090601f016020900481019282601f10610aa957805160ff1916838001178555610ad7565b82800160010185558215610ad7579182015b82811115610ad6578251825591602001919060010190610abb565b5b509050610ae49190610ae8565b5090565b5b80821115610b01576000816000905550600101610ae9565b509056fea264697066735822122091befa323919a5b9655929454f08b6a2bbee52986172ee69d8b516a91dd44a0a64736f6c63430007000033",
  "immutableReferences": {},
  "source": "// SPDX-License-Identifier: MIT\n// pragma experimental ABIEncoderV2;\npragma solidity 0.7.0;\n\ncontract MyContract {\n    struct FileDetails {\n        string uploader_name;\n        uint256 timestamp;\n        string imgHash;\n    }\n\n    mapping(string => FileDetails) public hashDetails;\n\n    function sethashDetails(\n        string memory _uploader_name,\n        uint256 _timestamp,\n        string memory _imgHash\n    ) public {\n        hashDetails[_imgHash].imgHash = _imgHash;\n        hashDetails[_imgHash].timestamp = _timestamp;\n        hashDetails[_imgHash].uploader_name = _uploader_name;\n    }\n\n    function verifyDetails(string memory _imgHash)\n        public\n        view\n        returns (\n            string memory uploader_name,\n            uint256 timestamp,\n            string memory imgHash\n        )\n    {\n        return (\n            hashDetails[_imgHash].uploader_name,\n            hashDetails[_imgHash].timestamp,\n            hashDetails[_imgHash].imgHash\n        );\n    }\n}\n",
  "sourcePath": "/home/sanjeev/Downloads/Document_Verification_BlockChain-main/contracts/MyContract.sol",
  "compiler": {
    "name": "solc",
    "version": "0.7.0+commit.9e61f92b.Emscripten.clang"
  },
  "schemaVersion": "3.3.3",
  "updatedAt": "2021-01-30T10:53:24.825Z",
  "networkType": "ethereum",
  "devdoc": {
    "kind": "dev",
    "methods": {},
    "version": 1
  },
  "userdoc": {
    "kind": "user",
    "methods": {},
    "version": 1
  }
}